{
  "contractName": "StakingToken",
  "abi": [
    {
      "inputs": [
        {
          "internalType": "address",
          "name": "_owner",
          "type": "address"
        },
        {
          "internalType": "uint256",
          "name": "_supply",
          "type": "uint256"
        }
      ],
      "stateMutability": "nonpayable",
      "type": "constructor"
    },
    {
      "anonymous": false,
      "inputs": [
        {
          "indexed": true,
          "internalType": "address",
          "name": "owner",
          "type": "address"
        },
        {
          "indexed": true,
          "internalType": "address",
          "name": "spender",
          "type": "address"
        },
        {
          "indexed": false,
          "internalType": "uint256",
          "name": "value",
          "type": "uint256"
        }
      ],
      "name": "Approval",
      "type": "event"
    },
    {
      "anonymous": false,
      "inputs": [
        {
          "indexed": true,
          "internalType": "address",
          "name": "from",
          "type": "address"
        },
        {
          "indexed": true,
          "internalType": "address",
          "name": "to",
          "type": "address"
        },
        {
          "indexed": false,
          "internalType": "uint256",
          "name": "value",
          "type": "uint256"
        }
      ],
      "name": "Transfer",
      "type": "event"
    },
    {
      "inputs": [
        {
          "internalType": "address",
          "name": "",
          "type": "address"
        }
      ],
      "name": "addressThatReferred",
      "outputs": [
        {
          "internalType": "address",
          "name": "",
          "type": "address"
        }
      ],
      "stateMutability": "view",
      "type": "function",
      "constant": true
    },
    {
      "inputs": [
        {
          "internalType": "address",
          "name": "owner",
          "type": "address"
        },
        {
          "internalType": "address",
          "name": "spender",
          "type": "address"
        }
      ],
      "name": "allowance",
      "outputs": [
        {
          "internalType": "uint256",
          "name": "",
          "type": "uint256"
        }
      ],
      "stateMutability": "view",
      "type": "function",
      "constant": true
    },
    {
      "inputs": [
        {
          "internalType": "address",
          "name": "spender",
          "type": "address"
        },
        {
          "internalType": "uint256",
          "name": "amount",
          "type": "uint256"
        }
      ],
      "name": "approve",
      "outputs": [
        {
          "internalType": "bool",
          "name": "",
          "type": "bool"
        }
      ],
      "stateMutability": "nonpayable",
      "type": "function"
    },
    {
      "inputs": [
        {
          "internalType": "address",
          "name": "account",
          "type": "address"
        }
      ],
      "name": "balanceOf",
      "outputs": [
        {
          "internalType": "uint256",
          "name": "",
          "type": "uint256"
        }
      ],
      "stateMutability": "view",
      "type": "function",
      "constant": true
    },
    {
      "inputs": [
        {
          "internalType": "address",
          "name": "",
          "type": "address"
        }
      ],
      "name": "bonus",
      "outputs": [
        {
          "internalType": "uint256",
          "name": "uplineProfit",
          "type": "uint256"
        }
      ],
      "stateMutability": "view",
      "type": "function",
      "constant": true
    },
    {
      "inputs": [],
      "name": "decimals",
      "outputs": [
        {
          "internalType": "uint8",
          "name": "",
          "type": "uint8"
        }
      ],
      "stateMutability": "view",
      "type": "function",
      "constant": true
    },
    {
      "inputs": [
        {
          "internalType": "address",
          "name": "spender",
          "type": "address"
        },
        {
          "internalType": "uint256",
          "name": "subtractedValue",
          "type": "uint256"
        }
      ],
      "name": "decreaseAllowance",
      "outputs": [
        {
          "internalType": "bool",
          "name": "",
          "type": "bool"
        }
      ],
      "stateMutability": "nonpayable",
      "type": "function"
    },
    {
      "inputs": [
        {
          "internalType": "address",
          "name": "spender",
          "type": "address"
        },
        {
          "internalType": "uint256",
          "name": "addedValue",
          "type": "uint256"
        }
      ],
      "name": "increaseAllowance",
      "outputs": [
        {
          "internalType": "bool",
          "name": "",
          "type": "bool"
        }
      ],
      "stateMutability": "nonpayable",
      "type": "function"
    },
    {
      "inputs": [],
      "name": "name",
      "outputs": [
        {
          "internalType": "string",
          "name": "",
          "type": "string"
        }
      ],
      "stateMutability": "view",
      "type": "function",
      "constant": true
    },
    {
      "inputs": [],
      "name": "owner",
      "outputs": [
        {
          "internalType": "address",
          "name": "",
          "type": "address"
        }
      ],
      "stateMutability": "view",
      "type": "function",
      "constant": true
    },
    {
      "inputs": [],
      "name": "percentGrowth",
      "outputs": [
        {
          "internalType": "uint256",
          "name": "",
          "type": "uint256"
        }
      ],
      "stateMutability": "view",
      "type": "function",
      "constant": true
    },
    {
      "inputs": [],
      "name": "rewardToShare",
      "outputs": [
        {
          "internalType": "uint256",
          "name": "",
          "type": "uint256"
        }
      ],
      "stateMutability": "view",
      "type": "function",
      "constant": true
    },
    {
      "inputs": [
        {
          "internalType": "address",
          "name": "",
          "type": "address"
        }
      ],
      "name": "stakeholders",
      "outputs": [
        {
          "internalType": "bool",
          "name": "staker",
          "type": "bool"
        },
        {
          "internalType": "uint256",
          "name": "id",
          "type": "uint256"
        }
      ],
      "stateMutability": "view",
      "type": "function",
      "constant": true
    },
    {
      "inputs": [],
      "name": "stakeholdersCount",
      "outputs": [
        {
          "internalType": "uint256",
          "name": "",
          "type": "uint256"
        }
      ],
      "stateMutability": "view",
      "type": "function",
      "constant": true
    },
    {
      "inputs": [],
      "name": "stakeholdersIndex",
      "outputs": [
        {
          "internalType": "uint256",
          "name": "",
          "type": "uint256"
        }
      ],
      "stateMutability": "view",
      "type": "function",
      "constant": true
    },
    {
      "inputs": [
        {
          "internalType": "uint256",
          "name": "",
          "type": "uint256"
        }
      ],
      "name": "stakeholdersReverseMapping",
      "outputs": [
        {
          "internalType": "address",
          "name": "",
          "type": "address"
        }
      ],
      "stateMutability": "view",
      "type": "function",
      "constant": true
    },
    {
      "inputs": [],
      "name": "symbol",
      "outputs": [
        {
          "internalType": "string",
          "name": "",
          "type": "string"
        }
      ],
      "stateMutability": "view",
      "type": "function",
      "constant": true
    },
    {
      "inputs": [],
      "name": "totalStakes",
      "outputs": [
        {
          "internalType": "uint256",
          "name": "",
          "type": "uint256"
        }
      ],
      "stateMutability": "view",
      "type": "function",
      "constant": true
    },
    {
      "inputs": [],
      "name": "totalStakingPool",
      "outputs": [
        {
          "internalType": "uint256",
          "name": "",
          "type": "uint256"
        }
      ],
      "stateMutability": "view",
      "type": "function",
      "constant": true
    },
    {
      "inputs": [],
      "name": "totalSupply",
      "outputs": [
        {
          "internalType": "uint256",
          "name": "",
          "type": "uint256"
        }
      ],
      "stateMutability": "view",
      "type": "function",
      "constant": true
    },
    {
      "inputs": [
        {
          "internalType": "address",
          "name": "stakeholderAddress",
          "type": "address"
        }
      ],
      "name": "stakeholderReferralCount",
      "outputs": [
        {
          "internalType": "uint256",
          "name": "",
          "type": "uint256"
        }
      ],
      "stateMutability": "view",
      "type": "function",
      "constant": true
    },
    {
      "inputs": [
        {
          "internalType": "address",
          "name": "stakeholderAddress",
          "type": "address"
        }
      ],
      "name": "stakeholdersReferredList",
      "outputs": [
        {
          "internalType": "address[]",
          "name": "",
          "type": "address[]"
        }
      ],
      "stateMutability": "view",
      "type": "function",
      "constant": true
    },
    {
      "inputs": [
        {
          "internalType": "uint256",
          "name": "_stake",
          "type": "uint256"
        },
        {
          "internalType": "address",
          "name": "referree",
          "type": "address"
        }
      ],
      "name": "createStake",
      "outputs": [],
      "stateMutability": "nonpayable",
      "type": "function"
    },
    {
      "inputs": [
        {
          "internalType": "uint256",
          "name": "_stake",
          "type": "uint256"
        }
      ],
      "name": "removeStake",
      "outputs": [],
      "stateMutability": "nonpayable",
      "type": "function"
    },
    {
      "inputs": [
        {
          "internalType": "address",
          "name": "_stakeholder",
          "type": "address"
        }
      ],
      "name": "stakeOf",
      "outputs": [
        {
          "internalType": "uint256",
          "name": "",
          "type": "uint256"
        }
      ],
      "stateMutability": "view",
      "type": "function",
      "constant": true
    },
    {
      "inputs": [],
      "name": "checkCommunityGrowthPercent",
      "outputs": [],
      "stateMutability": "nonpayable",
      "type": "function"
    },
    {
      "inputs": [],
      "name": "getRewards",
      "outputs": [],
      "stateMutability": "nonpayable",
      "type": "function"
    },
    {
      "inputs": [],
      "name": "getReferralBouns",
      "outputs": [],
      "stateMutability": "nonpayable",
      "type": "function"
    },
    {
      "inputs": [
        {
          "internalType": "address",
          "name": "_stakeholder",
          "type": "address"
        }
      ],
      "name": "rewardOf",
      "outputs": [
        {
          "internalType": "uint256",
          "name": "",
          "type": "uint256"
        }
      ],
      "stateMutability": "view",
      "type": "function",
      "constant": true
    },
    {
      "inputs": [
        {
          "internalType": "address",
          "name": "_to",
          "type": "address"
        },
        {
          "internalType": "uint256",
          "name": "_tokens",
          "type": "uint256"
        }
      ],
      "name": "transfer",
      "outputs": [
        {
          "internalType": "bool",
          "name": "",
          "type": "bool"
        }
      ],
      "stateMutability": "nonpayable",
      "type": "function"
    },
    {
      "inputs": [
        {
          "internalType": "address[]",
          "name": "_receivers",
          "type": "address[]"
        },
        {
          "internalType": "uint256[]",
          "name": "_tokens",
          "type": "uint256[]"
        }
      ],
      "name": "bulkTransfer",
      "outputs": [
        {
          "internalType": "bool",
          "name": "",
          "type": "bool"
        }
      ],
      "stateMutability": "nonpayable",
      "type": "function"
    },
    {
      "inputs": [
        {
          "internalType": "address",
          "name": "sender",
          "type": "address"
        },
        {
          "internalType": "address",
          "name": "recipient",
          "type": "address"
        },
        {
          "internalType": "uint256",
          "name": "_tokens",
          "type": "uint256"
        }
      ],
      "name": "transferFrom",
      "outputs": [
        {
          "internalType": "bool",
          "name": "",
          "type": "bool"
        }
      ],
      "stateMutability": "nonpayable",
      "type": "function"
    },
    {
      "inputs": [],
      "name": "withdrawReward",
      "outputs": [],
      "stateMutability": "nonpayable",
      "type": "function"
    }
  ],
  "bytecode": "0x608060405260006006556000600755600060085560006009556000600a556000600b556000600c556000600d556000600e556000600f5560006010553480156200004857600080fd5b506040516200553838038062005538833981810160405260408110156200006e57600080fd5b8101908080519060200190929190805190602001909291905050506040518060400160405280600481526020017f5368696c000000000000000000000000000000000000000000000000000000008152506040518060400160405280600481526020017f506f53480000000000000000000000000000000000000000000000000000000081525081600390805190602001906200010d92919062001474565b5080600490805190602001906200012692919062001474565b506012600560006101000a81548160ff021916908360ff160217905550505081600560016101000a81548173ffffffffffffffffffffffffffffffffffffffff021916908373ffffffffffffffffffffffffffffffffffffffff1602179055506000620001aa670de0b6b3a7640000836200020560201b6200209d1790919060201c565b9050620001be83826200029060201b60201c565b620001db69010f0cf064dd5920000060006200046e60201b60201c565b620001eb6200048460201b60201c565b50620001fc6200061060201b60201c565b50505062001523565b6000808314156200021a57600090506200028a565b60008284029050828482816200022c57fe5b041462000285576040517f08c379a0000000000000000000000000000000000000000000000000000000008152600401808060200182810382526021815260200180620054f66021913960400191505060405180910390fd5b809150505b92915050565b600073ffffffffffffffffffffffffffffffffffffffff168273ffffffffffffffffffffffffffffffffffffffff16141562000334576040517f08c379a000000000000000000000000000000000000000000000000000000000815260040180806020018281038252601f8152602001807f45524332303a206d696e7420746f20746865207a65726f20616464726573730081525060200191505060405180910390fd5b62000348600083836200076860201b60201c565b62000364816002546200076d60201b620022561790919060201c565b600281905550620003c2816000808573ffffffffffffffffffffffffffffffffffffffff1673ffffffffffffffffffffffffffffffffffffffff168152602001908152602001600020546200076d60201b620022561790919060201c565b6000808473ffffffffffffffffffffffffffffffffffffffff1673ffffffffffffffffffffffffffffffffffffffff168152602001908152602001600020819055508173ffffffffffffffffffffffffffffffffffffffff16600073ffffffffffffffffffffffffffffffffffffffff167fddf252ad1be2c89b69c2b068fc378daa952ba7f163c4a11628f55a4df523b3ef836040518082815260200191505060405180910390a35050565b620004808282620007f660201b60201c565b5050565b6000600560019054906101000a900473ffffffffffffffffffffffffffffffffffffffff1673ffffffffffffffffffffffffffffffffffffffff163373ffffffffffffffffffffffffffffffffffffffff16146200052e576040517f08c379a000000000000000000000000000000000000000000000000000000000815260040180806020018281038252602b815260200180620054cb602b913960400191505060405180910390fd5b6010544211620005a6576040517f08c379a00000000000000000000000000000000000000000000000000000000081526004018080602001828103825260198152602001807f776169742032346872732066726f6d206c6173742063616c6c0000000000000081525060200191505060405180910390fd5b603c4201601081905550620005ce600a546008546200076d60201b620022561790919060201c565b6008819055506000600a81905550620005fa600b5460085462000a4260201b6200216d1790919060201c565b6008819055506000600b81905550600854905090565b600560019054906101000a900473ffffffffffffffffffffffffffffffffffffffff1673ffffffffffffffffffffffffffffffffffffffff163373ffffffffffffffffffffffffffffffffffffffff1614620006b8576040517f08c379a000000000000000000000000000000000000000000000000000000000815260040180806020018281038252602b815260200180620054cb602b913960400191505060405180910390fd5b600f54421162000730576040517f08c379a00000000000000000000000000000000000000000000000000000000081526004018080602001828103825260198152602001807f776169742032346872732066726f6d206c6173742063616c6c0000000000000081525060200191505060405180910390fd5b603c4201600f81905550620007586007546006546200076d60201b620022561790919060201c565b6006819055506000600781905550565b505050565b600080828401905083811015620007ec576040517f08c379a000000000000000000000000000000000000000000000000000000000815260040180806020018281038252601b8152602001807f536166654d6174683a206164646974696f6e206f766572666c6f77000000000081525060200191505060405180910390fd5b8091505092915050565b60148210156200086e576040517f08c379a000000000000000000000000000000000000000000000000000000000815260040180806020018281038252601a8152602001807f6d696e696d756d207374616b6520697320323020746f6b656e7300000000000081525060200191505060405180910390fd5b6000601360003373ffffffffffffffffffffffffffffffffffffffff1673ffffffffffffffffffffffffffffffffffffffff168152602001908152602001600020541415620008c957620008c83362000a9460201b60201c565b5b6000620008dc8362000c3360201b60201c565b90506000620008fa828562000a4260201b6200216d1790919060201c565b905062000918816007546200076d60201b620022561790919060201c565b6007819055506200097782601360003373ffffffffffffffffffffffffffffffffffffffff1673ffffffffffffffffffffffffffffffffffffffff168152602001908152602001600020546200076d60201b620022561790919060201c565b601360003373ffffffffffffffffffffffffffffffffffffffff1673ffffffffffffffffffffffffffffffffffffffff16815260200190815260200160002081905550620009d682600e546200076d60201b620022561790919060201c565b600e81905550620009ee338562000c9b60201b60201c565b600073ffffffffffffffffffffffffffffffffffffffff168373ffffffffffffffffffffffffffffffffffffffff16141562000a2a5762000a3c565b62000a3b8362000e7860201b60201c565b5b50505050565b600062000a8c83836040518060400160405280601e81526020017f536166654d6174683a207375627472616374696f6e206f766572666c6f7700008152506200129360201b60201c565b905092915050565b60001515601160008373ffffffffffffffffffffffffffffffffffffffff1673ffffffffffffffffffffffffffffffffffffffff16815260200190815260200160002060000160009054906101000a900460ff161515141562000c30576001601160008373ffffffffffffffffffffffffffffffffffffffff1673ffffffffffffffffffffffffffffffffffffffff16815260200190815260200160002060000160006101000a81548160ff021916908315150217905550600d54601160008373ffffffffffffffffffffffffffffffffffffffff1673ffffffffffffffffffffffffffffffffffffffff168152602001908152602001600020600101819055508060126000600d54815260200190815260200160002060006101000a81548173ffffffffffffffffffffffffffffffffffffffff021916908373ffffffffffffffffffffffffffffffffffffffff16021790555062000c066001600d546200076d60201b620022561790919060201c565b600d8190555062000c296001600a546200076d60201b620022561790919060201c565b600a819055505b50565b60008062000c516005846200020560201b6200209d1790919060201c565b9050600062000c706064836200135760201b620021231790919060201c565b9050600062000c8e828662000a4260201b6200216d1790919060201c565b9050809350505050919050565b600073ffffffffffffffffffffffffffffffffffffffff168273ffffffffffffffffffffffffffffffffffffffff16141562000d23576040517f08c379a0000000000000000000000000000000000000000000000000000000008152600401808060200182810382526021815260200180620055176021913960400191505060405180910390fd5b62000d37826000836200076860201b60201c565b62000daa8160405180606001604052806022815260200162005458602291396000808673ffffffffffffffffffffffffffffffffffffffff1673ffffffffffffffffffffffffffffffffffffffff168152602001908152602001600020546200129360201b62002819179092919060201c565b6000808473ffffffffffffffffffffffffffffffffffffffff1673ffffffffffffffffffffffffffffffffffffffff1681526020019081526020016000208190555062000e088160025462000a4260201b6200216d1790919060201c565b600281905550600073ffffffffffffffffffffffffffffffffffffffff168273ffffffffffffffffffffffffffffffffffffffff167fddf252ad1be2c89b69c2b068fc378daa952ba7f163c4a11628f55a4df523b3ef836040518082815260200191505060405180910390a35050565b8073ffffffffffffffffffffffffffffffffffffffff163373ffffffffffffffffffffffffffffffffffffffff16141562000eff576040517f08c379a0000000000000000000000000000000000000000000000000000000008152600401808060200182810382526028815260200180620054a36028913960400191505060405180910390fd5b60001515601560003373ffffffffffffffffffffffffffffffffffffffff1673ffffffffffffffffffffffffffffffffffffffff16815260200190815260200160002060009054906101000a900460ff1615151462000fc6576040517f08c379a000000000000000000000000000000000000000000000000000000000815260040180806020018281038252601e8152602001807f616c7265616479207375626d697474656420796f75722072656665726565000081525060200191505060405180910390fd5b60011515601160008373ffffffffffffffffffffffffffffffffffffffff1673ffffffffffffffffffffffffffffffffffffffff16815260200190815260200160002060000160009054906101000a900460ff1615151462001074576040517f08c379a00000000000000000000000000000000000000000000000000000000081526004018080602001828103825260298152602001806200547a6029913960400191505060405180910390fd5b620010d16001601860008473ffffffffffffffffffffffffffffffffffffffff1673ffffffffffffffffffffffffffffffffffffffff168152602001908152602001600020600001546200076d60201b620022561790919060201c565b601860008373ffffffffffffffffffffffffffffffffffffffff1673ffffffffffffffffffffffffffffffffffffffff16815260200190815260200160002060000181905550601860008273ffffffffffffffffffffffffffffffffffffffff1673ffffffffffffffffffffffffffffffffffffffff168152602001908152602001600020600101339080600181540180825580915050600190039060005260206000200160009091909190916101000a81548173ffffffffffffffffffffffffffffffffffffffff021916908373ffffffffffffffffffffffffffffffffffffffff16021790555080601460003373ffffffffffffffffffffffffffffffffffffffff1673ffffffffffffffffffffffffffffffffffffffff16815260200190815260200160002060006101000a81548173ffffffffffffffffffffffffffffffffffffffff021916908373ffffffffffffffffffffffffffffffffffffffff1602179055506001601560003373ffffffffffffffffffffffffffffffffffffffff1673ffffffffffffffffffffffffffffffffffffffff16815260200190815260200160002060006101000a81548160ff02191690831515021790555050565b600083831115829062001344576040517f08c379a00000000000000000000000000000000000000000000000000000000081526004018080602001828103825283818151815260200191508051906020019080838360005b8381101562001308578082015181840152602081019050620012eb565b50505050905090810190601f168015620013365780820380516001836020036101000a031916815260200191505b509250505060405180910390fd5b5060008385039050809150509392505050565b6000620013a183836040518060400160405280601a81526020017f536166654d6174683a206469766973696f6e206279207a65726f000000000000815250620013a960201b60201c565b905092915050565b6000808311829062001459576040517f08c379a00000000000000000000000000000000000000000000000000000000081526004018080602001828103825283818151815260200191508051906020019080838360005b838110156200141d57808201518184015260208101905062001400565b50505050905090810190601f1680156200144b5780820380516001836020036101000a031916815260200191505b509250505060405180910390fd5b5060008385816200146657fe5b049050809150509392505050565b828054600181600116156101000203166002900490600052602060002090601f016020900481019282601f10620014b757805160ff1916838001178555620014e8565b82800160010185558215620014e8579182015b82811115620014e7578251825591602001919060010190620014ca565b5b509050620014f79190620014fb565b5090565b6200152091905b808211156200151c57600081600090555060010162001502565b5090565b90565b613f2580620015336000396000f3fe608060405234801561001057600080fd5b50600436106101fb5760003560e01c806370a082311161011a578063a457c2d7116100ad578063c07cfca91161007c578063c07cfca914610a77578063c885bc5814610ada578063d8cb4aa314610ae4578063dd62ed3e14610b3c578063e96e27bf14610bb4576101fb565b8063a457c2d71461091f578063a9059cbb14610985578063b01d4daf146109eb578063bf9befb114610a59576101fb565b80638da5cb5b116100e95780638da5cb5b1461081a578063939624ab1461086457806395d89b41146108925780639f39870a14610915576101fb565b806370a0823114610716578063737a454b1461076e57806378ca5e871461078c5780638159122f14610810576101fb565b8063313ce56711610192578063426233601161016157806342623360146105b95780635284d4051461061157806364687d671461062f5780636ffac6011461067d576101fb565b8063313ce567146104f357806339509351146105175780633c9e19cd1461057d5780633d20ec5f1461059b576101fb565b806318160ddd116101ce57806318160ddd146103d95780631d62ebd9146103f75780631f150b251461044f57806323b872dd1461046d576101fb565b80630572b0cc1461020057806306fdde031461020a578063095ea7b31461028d578063153a1f3e146102f3575b600080fd5b610208610c0c565b005b6102126110b2565b6040518080602001828103825283818151815260200191508051906020019080838360005b83811015610252578082015181840152602081019050610237565b50505050905090810190601f16801561027f5780820380516001836020036101000a031916815260200191505b509250505060405180910390f35b6102d9600480360360408110156102a357600080fd5b81019080803573ffffffffffffffffffffffffffffffffffffffff16906020019092919080359060200190929190505050611154565b604051808215151515815260200191505060405180910390f35b6103bf6004803603604081101561030957600080fd5b810190808035906020019064010000000081111561032657600080fd5b82018360208201111561033857600080fd5b8035906020019184602083028401116401000000008311171561035a57600080fd5b90919293919293908035906020019064010000000081111561037b57600080fd5b82018360208201111561038d57600080fd5b803590602001918460208302840111640100000000831117156103af57600080fd5b9091929391929390505050611172565b604051808215151515815260200191505060405180910390f35b6103e16112c0565b6040518082815260200191505060405180910390f35b6104396004803603602081101561040d57600080fd5b81019080803573ffffffffffffffffffffffffffffffffffffffff1690602001909291905050506112ca565b6040518082815260200191505060405180910390f35b610457611313565b6040518082815260200191505060405180910390f35b6104d96004803603606081101561048357600080fd5b81019080803573ffffffffffffffffffffffffffffffffffffffff169060200190929190803573ffffffffffffffffffffffffffffffffffffffff16906020019092919080359060200190929190505050611319565b604051808215151515815260200191505060405180910390f35b6104fb611386565b604051808260ff1660ff16815260200191505060405180910390f35b6105636004803603604081101561052d57600080fd5b81019080803573ffffffffffffffffffffffffffffffffffffffff1690602001909291908035906020019092919050505061139d565b604051808215151515815260200191505060405180910390f35b610585611450565b6040518082815260200191505060405180910390f35b6105a3611456565b6040518082815260200191505060405180910390f35b6105fb600480360360208110156105cf57600080fd5b81019080803573ffffffffffffffffffffffffffffffffffffffff16906020019092919050505061145c565b6040518082815260200191505060405180910390f35b6106196114a5565b6040518082815260200191505060405180910390f35b61067b6004803603604081101561064557600080fd5b8101908080359060200190929190803573ffffffffffffffffffffffffffffffffffffffff1690602001909291905050506114ab565b005b6106bf6004803603602081101561069357600080fd5b81019080803573ffffffffffffffffffffffffffffffffffffffff1690602001909291905050506114b9565b6040518080602001828103825283818151815260200191508051906020019060200280838360005b838110156107025780820151818401526020810190506106e7565b505050509050019250505060405180910390f35b6107586004803603602081101561072c57600080fd5b81019080803573ffffffffffffffffffffffffffffffffffffffff169060200190929190505050611589565b6040518082815260200191505060405180910390f35b6107766115d1565b6040518082815260200191505060405180910390f35b6107ce600480360360208110156107a257600080fd5b81019080803573ffffffffffffffffffffffffffffffffffffffff1690602001909291905050506115d7565b604051808273ffffffffffffffffffffffffffffffffffffffff1673ffffffffffffffffffffffffffffffffffffffff16815260200191505060405180910390f35b61081861160a565b005b6108226117e0565b604051808273ffffffffffffffffffffffffffffffffffffffff1673ffffffffffffffffffffffffffffffffffffffff16815260200191505060405180910390f35b6108906004803603602081101561087a57600080fd5b8101908080359060200190929190505050611806565b005b61089a611812565b6040518080602001828103825283818151815260200191508051906020019080838360005b838110156108da5780820151818401526020810190506108bf565b50505050905090810190601f1680156109075780820380516001836020036101000a031916815260200191505b509250505060405180910390f35b61091d6118b4565b005b61096b6004803603604081101561093557600080fd5b81019080803573ffffffffffffffffffffffffffffffffffffffff16906020019092919080359060200190929190505050611b00565b604051808215151515815260200191505060405180910390f35b6109d16004803603604081101561099b57600080fd5b81019080803573ffffffffffffffffffffffffffffffffffffffff16906020019092919080359060200190929190505050611bcd565b604051808215151515815260200191505060405180910390f35b610a1760048036036020811015610a0157600080fd5b8101908080359060200190929190505050611c5a565b604051808273ffffffffffffffffffffffffffffffffffffffff1673ffffffffffffffffffffffffffffffffffffffff16815260200191505060405180910390f35b610a61611c8d565b6040518082815260200191505060405180910390f35b610ab960048036036020811015610a8d57600080fd5b81019080803573ffffffffffffffffffffffffffffffffffffffff169060200190929190505050611c93565b60405180831515151581526020018281526020019250505060405180910390f35b610ae2611cc4565b005b610b2660048036036020811015610afa57600080fd5b81019080803573ffffffffffffffffffffffffffffffffffffffff169060200190929190505050611f3b565b6040518082815260200191505060405180910390f35b610b9e60048036036040811015610b5257600080fd5b81019080803573ffffffffffffffffffffffffffffffffffffffff169060200190929190803573ffffffffffffffffffffffffffffffffffffffff169060200190929190505050611f59565b6040518082815260200191505060405180910390f35b610bf660048036036020811015610bca57600080fd5b81019080803573ffffffffffffffffffffffffffffffffffffffff169060200190929190505050611fe0565b6040518082815260200191505060405180910390f35b60011515601160003373ffffffffffffffffffffffffffffffffffffffff1673ffffffffffffffffffffffffffffffffffffffff16815260200190815260200160002060000160009054906101000a900460ff16151514610cb8576040517f08c379a0000000000000000000000000000000000000000000000000000000008152600401808060200182810382526029815260200180613d4e6029913960400191505060405180910390fd5b600060095411610d30576040517f08c379a000000000000000000000000000000000000000000000000000000000815260040180806020018281038252601f8152602001807f6e6f2072657761726420746f20736861726520617420746869732074696d650081525060200191505060405180910390fd5b601760003373ffffffffffffffffffffffffffffffffffffffff1673ffffffffffffffffffffffffffffffffffffffff168152602001908152602001600020544211610dc7576040517f08c379a0000000000000000000000000000000000000000000000000000000008152600401808060200182810382526028815260200180613d9d6028913960400191505060405180910390fd5b603c4201601760003373ffffffffffffffffffffffffffffffffffffffff1673ffffffffffffffffffffffffffffffffffffffff168152602001908152602001600020819055506000610e193361202c565b9050601560003373ffffffffffffffffffffffffffffffffffffffff1673ffffffffffffffffffffffffffffffffffffffff16815260200190815260200160002060009054906101000a900460ff1615610fba576000610e966064610e8860058561209d90919063ffffffff16565b61212390919063ffffffff16565b90506000610ead828461216d90919063ffffffff16565b90506000601460003373ffffffffffffffffffffffffffffffffffffffff1673ffffffffffffffffffffffffffffffffffffffff16815260200190815260200160002060009054906101000a900473ffffffffffffffffffffffffffffffffffffffff169050610f1d81846121b7565b610f6f82601660003373ffffffffffffffffffffffffffffffffffffffff1673ffffffffffffffffffffffffffffffffffffffff1681526020019081526020016000205461225690919063ffffffff16565b601660003373ffffffffffffffffffffffffffffffffffffffff1673ffffffffffffffffffffffffffffffffffffffff168152602001908152602001600020819055505050506110af565b6000610fe36064610fd560058561209d90919063ffffffff16565b61212390919063ffffffff16565b9050610ffa8160065461225690919063ffffffff16565b6006819055506000611015828461216d90919063ffffffff16565b905061106981601660003373ffffffffffffffffffffffffffffffffffffffff1673ffffffffffffffffffffffffffffffffffffffff1681526020019081526020016000205461225690919063ffffffff16565b601660003373ffffffffffffffffffffffffffffffffffffffff1673ffffffffffffffffffffffffffffffffffffffff1681526020019081526020016000208190555050505b50565b606060038054600181600116156101000203166002900480601f01602080910402602001604051908101604052809291908181526020018280546001816001161561010002031660029004801561114a5780601f1061111f5761010080835404028352916020019161114a565b820191906000526020600020905b81548152906001019060200180831161112d57829003601f168201915b5050505050905090565b60006111686111616122de565b84846122e6565b6001905092915050565b600082829050858590501461118657600080fd5b600080600090505b868690508110156112b257600560019054906101000a900473ffffffffffffffffffffffffffffffffffffffff1673ffffffffffffffffffffffffffffffffffffffff163373ffffffffffffffffffffffffffffffffffffffff1614156112535761124e338888848181106111ff57fe5b9050602002013573ffffffffffffffffffffffffffffffffffffffff16611249670de0b6b3a764000089898781811061123457fe5b9050602002013561209d90919063ffffffff16565b6124dd565b6112a5565b61126f3386868481811061126357fe5b9050602002013561279e565b91506112a43388888481811061128157fe5b9050602002013573ffffffffffffffffffffffffffffffffffffffff16846124dd565b5b808060010191505061118e565b506001915050949350505050565b6000600254905090565b6000601660008373ffffffffffffffffffffffffffffffffffffffff1673ffffffffffffffffffffffffffffffffffffffff168152602001908152602001600020549050919050565b600c5481565b600080611326858461279e565b90506113338585836124dd565b61137a8561133f6122de565b61137586604051806060016040528060288152602001613e39602891396113668b33611f59565b6128199092919063ffffffff16565b6122e6565b60019150509392505050565b6000600560009054906101000a900460ff16905090565b60006114466113aa6122de565b8461144185600160006113bb6122de565b73ffffffffffffffffffffffffffffffffffffffff1673ffffffffffffffffffffffffffffffffffffffff16815260200190815260200160002060008973ffffffffffffffffffffffffffffffffffffffff1673ffffffffffffffffffffffffffffffffffffffff1681526020019081526020016000205461225690919063ffffffff16565b6122e6565b6001905092915050565b60095481565b60065481565b6000601360008373ffffffffffffffffffffffffffffffffffffffff1673ffffffffffffffffffffffffffffffffffffffff168152602001908152602001600020549050919050565b600d5481565b6114b582826128d9565b5050565b6060601860008373ffffffffffffffffffffffffffffffffffffffff1673ffffffffffffffffffffffffffffffffffffffff16815260200190815260200160002060010180548060200260200160405190810160405280929190818152602001828054801561157d57602002820191906000526020600020905b8160009054906101000a900473ffffffffffffffffffffffffffffffffffffffff1673ffffffffffffffffffffffffffffffffffffffff1681526020019060010190808311611533575b50505050509050919050565b60008060008373ffffffffffffffffffffffffffffffffffffffff1673ffffffffffffffffffffffffffffffffffffffff168152602001908152602001600020549050919050565b60085481565b60146020528060005260406000206000915054906101000a900473ffffffffffffffffffffffffffffffffffffffff1681565b600560019054906101000a900473ffffffffffffffffffffffffffffffffffffffff1673ffffffffffffffffffffffffffffffffffffffff163373ffffffffffffffffffffffffffffffffffffffff16146116b0576040517f08c379a000000000000000000000000000000000000000000000000000000000815260040180806020018281038252602b815260200180613ded602b913960400191505060405180910390fd5b6000600854905060006116c1612ae5565b905060008282039050600081136116e75760006009819055506000600c819055506117d3565b6000819050600061170260648361209d90919063ffffffff16565b905061173185611723670de0b6b3a76400008461209d90919063ffffffff16565b61212390919063ffffffff16565b600c81905550678ac7230489e80000600c54106117bf576000611760600a600c5461212390919063ffffffff16565b9050600061179468056bc75e2d631000006117868460065461209d90919063ffffffff16565b61212390919063ffffffff16565b90506117ab8160065461216d90919063ffffffff16565b6006819055508060098190555050506117d0565b60006009819055506000600c819055505b50505b6117db612c60565b505050565b600560019054906101000a900473ffffffffffffffffffffffffffffffffffffffff1681565b61180f81612dae565b50565b606060048054600181600116156101000203166002900480601f0160208091040260200160405190810160405280929190818152602001828054600181600116156101000203166002900480156118aa5780601f1061187f576101008083540402835291602001916118aa565b820191906000526020600020905b81548152906001019060200180831161188d57829003601f168201915b5050505050905090565b60011515601160003373ffffffffffffffffffffffffffffffffffffffff1673ffffffffffffffffffffffffffffffffffffffff16815260200190815260200160002060000160009054906101000a900460ff16151514611960576040517f08c379a0000000000000000000000000000000000000000000000000000000008152600401808060200182810382526029815260200180613d4e6029913960400191505060405180910390fd5b6000601960003373ffffffffffffffffffffffffffffffffffffffff1673ffffffffffffffffffffffffffffffffffffffff1681526020019081526020016000206000015411611a18576040517f08c379a00000000000000000000000000000000000000000000000000000000081526004018080602001828103825260198152602001807f796f7520646f206e6f74206861766520616e7920626f6e75730000000000000081525060200191505060405180910390fd5b6000601960003373ffffffffffffffffffffffffffffffffffffffff1673ffffffffffffffffffffffffffffffffffffffff168152602001908152602001600020600001549050611ab181601660003373ffffffffffffffffffffffffffffffffffffffff1673ffffffffffffffffffffffffffffffffffffffff1681526020019081526020016000205461225690919063ffffffff16565b601660003373ffffffffffffffffffffffffffffffffffffffff1673ffffffffffffffffffffffffffffffffffffffff16815260200190815260200160002081905550611afd33612f75565b50565b6000611bc3611b0d6122de565b84611bbe85604051806060016040528060258152602001613ecb6025913960016000611b376122de565b73ffffffffffffffffffffffffffffffffffffffff1673ffffffffffffffffffffffffffffffffffffffff16815260200190815260200160002060008a73ffffffffffffffffffffffffffffffffffffffff1673ffffffffffffffffffffffffffffffffffffffff168152602001908152602001600020546128199092919063ffffffff16565b6122e6565b6001905092915050565b6000600560019054906101000a900473ffffffffffffffffffffffffffffffffffffffff1673ffffffffffffffffffffffffffffffffffffffff163373ffffffffffffffffffffffffffffffffffffffff161415611c3557611c303384846124dd565b611c50565b6000611c41338461279e565b9050611c4e3385836124dd565b505b6001905092915050565b60126020528060005260406000206000915054906101000a900473ffffffffffffffffffffffffffffffffffffffff1681565b600e5481565b60116020528060005260406000206000915090508060000160009054906101000a900460ff16908060010154905082565b6000601660003373ffffffffffffffffffffffffffffffffffffffff1673ffffffffffffffffffffffffffffffffffffffff1681526020019081526020016000205411611d79576040517f08c379a000000000000000000000000000000000000000000000000000000000815260040180806020018281038252601e8152602001807f7265776172642062616c616e6365206d7573742062652061626f76652030000081525060200191505060405180910390fd5b60011515601160003373ffffffffffffffffffffffffffffffffffffffff1673ffffffffffffffffffffffffffffffffffffffff16815260200190815260200160002060000160009054906101000a900460ff16151514611e25576040517f08c379a0000000000000000000000000000000000000000000000000000000008152600401808060200182810382526029815260200180613d4e6029913960400191505060405180910390fd5b678ac7230489e80000600c541015611ea5576040517f08c379a00000000000000000000000000000000000000000000000000000000081526004018080602001828103825260118152602001807f77697468647261772064697361626c656400000000000000000000000000000081525060200191505060405180910390fd5b6000601660003373ffffffffffffffffffffffffffffffffffffffff1673ffffffffffffffffffffffffffffffffffffffff1681526020019081526020016000205490506000601660003373ffffffffffffffffffffffffffffffffffffffff1673ffffffffffffffffffffffffffffffffffffffff16815260200190815260200160002081905550611f383382612fc0565b50565b60196020528060005260406000206000915090508060000154905081565b6000600160008473ffffffffffffffffffffffffffffffffffffffff1673ffffffffffffffffffffffffffffffffffffffff16815260200190815260200160002060008373ffffffffffffffffffffffffffffffffffffffff1673ffffffffffffffffffffffffffffffffffffffff16815260200190815260200160002054905092915050565b6000601860008373ffffffffffffffffffffffffffffffffffffffff1673ffffffffffffffffffffffffffffffffffffffff168152602001908152602001600020600001549050919050565b6000612096600e54612088600954601360008773ffffffffffffffffffffffffffffffffffffffff1673ffffffffffffffffffffffffffffffffffffffff1681526020019081526020016000205461209d90919063ffffffff16565b61212390919063ffffffff16565b9050919050565b6000808314156120b0576000905061211d565b60008284029050828482816120c157fe5b0414612118576040517f08c379a0000000000000000000000000000000000000000000000000000000008152600401808060200182810382526021815260200180613e186021913960400191505060405180910390fd5b809150505b92915050565b600061216583836040518060400160405280601a81526020017f536166654d6174683a206469766973696f6e206279207a65726f000000000000815250613187565b905092915050565b60006121af83836040518060400160405280601e81526020017f536166654d6174683a207375627472616374696f6e206f766572666c6f770000815250612819565b905092915050565b61220c81601960008573ffffffffffffffffffffffffffffffffffffffff1673ffffffffffffffffffffffffffffffffffffffff1681526020019081526020016000206000015461225690919063ffffffff16565b601960008473ffffffffffffffffffffffffffffffffffffffff1673ffffffffffffffffffffffffffffffffffffffff168152602001908152602001600020600001819055505050565b6000808284019050838110156122d4576040517f08c379a000000000000000000000000000000000000000000000000000000000815260040180806020018281038252601b8152602001807f536166654d6174683a206164646974696f6e206f766572666c6f77000000000081525060200191505060405180910390fd5b8091505092915050565b600033905090565b600073ffffffffffffffffffffffffffffffffffffffff168373ffffffffffffffffffffffffffffffffffffffff16141561236c576040517f08c379a0000000000000000000000000000000000000000000000000000000008152600401808060200182810382526024815260200180613ea76024913960400191505060405180910390fd5b600073ffffffffffffffffffffffffffffffffffffffff168273ffffffffffffffffffffffffffffffffffffffff1614156123f2576040517f08c379a0000000000000000000000000000000000000000000000000000000008152600401808060200182810382526022815260200180613d2c6022913960400191505060405180910390fd5b80600160008573ffffffffffffffffffffffffffffffffffffffff1673ffffffffffffffffffffffffffffffffffffffff16815260200190815260200160002060008473ffffffffffffffffffffffffffffffffffffffff1673ffffffffffffffffffffffffffffffffffffffff168152602001908152602001600020819055508173ffffffffffffffffffffffffffffffffffffffff168373ffffffffffffffffffffffffffffffffffffffff167f8c5be1e5ebec7d5bd14f71427d1e84f3dd0314c0f7b2291e5b200ac8c7c3b925836040518082815260200191505060405180910390a3505050565b600073ffffffffffffffffffffffffffffffffffffffff168373ffffffffffffffffffffffffffffffffffffffff161415612563576040517f08c379a0000000000000000000000000000000000000000000000000000000008152600401808060200182810382526025815260200180613e826025913960400191505060405180910390fd5b600073ffffffffffffffffffffffffffffffffffffffff168273ffffffffffffffffffffffffffffffffffffffff1614156125e9576040517f08c379a0000000000000000000000000000000000000000000000000000000008152600401808060200182810382526023815260200180613ce76023913960400191505060405180910390fd5b6125f483838361324d565b61265f81604051806060016040528060268152602001613d77602691396000808773ffffffffffffffffffffffffffffffffffffffff1673ffffffffffffffffffffffffffffffffffffffff168152602001908152602001600020546128199092919063ffffffff16565b6000808573ffffffffffffffffffffffffffffffffffffffff1673ffffffffffffffffffffffffffffffffffffffff168152602001908152602001600020819055506126f2816000808573ffffffffffffffffffffffffffffffffffffffff1673ffffffffffffffffffffffffffffffffffffffff1681526020019081526020016000205461225690919063ffffffff16565b6000808473ffffffffffffffffffffffffffffffffffffffff1673ffffffffffffffffffffffffffffffffffffffff168152602001908152602001600020819055508173ffffffffffffffffffffffffffffffffffffffff168373ffffffffffffffffffffffffffffffffffffffff167fddf252ad1be2c89b69c2b068fc378daa952ba7f163c4a11628f55a4df523b3ef836040518082815260200191505060405180910390a3505050565b6000806127b5600a8461212390919063ffffffff16565b905060006127cd600a8361212390919063ffffffff16565b905060006127e4828461216d90919063ffffffff16565b90506127fb8160075461225690919063ffffffff16565b60078190555082850393506128108683613252565b50505092915050565b60008383111582906128c6576040517f08c379a00000000000000000000000000000000000000000000000000000000081526004018080602001828103825283818151815260200191508051906020019080838360005b8381101561288b578082015181840152602081019050612870565b50505050905090810190601f1680156128b85780820380516001836020036101000a031916815260200191505b509250505060405180910390fd5b5060008385039050809150509392505050565b6014821015612950576040517f08c379a000000000000000000000000000000000000000000000000000000000815260040180806020018281038252601a8152602001807f6d696e696d756d207374616b6520697320323020746f6b656e7300000000000081525060200191505060405180910390fd5b6000601360003373ffffffffffffffffffffffffffffffffffffffff1673ffffffffffffffffffffffffffffffffffffffff1681526020019081526020016000205414156129a2576129a133613416565b5b60006129ad836135a6565b905060006129c4828561216d90919063ffffffff16565b90506129db8160075461225690919063ffffffff16565b600781905550612a3382601360003373ffffffffffffffffffffffffffffffffffffffff1673ffffffffffffffffffffffffffffffffffffffff1681526020019081526020016000205461225690919063ffffffff16565b601360003373ffffffffffffffffffffffffffffffffffffffff1673ffffffffffffffffffffffffffffffffffffffff16815260200190815260200160002081905550612a8b82600e5461225690919063ffffffff16565b600e81905550612a9b3385613252565b600073ffffffffffffffffffffffffffffffffffffffff168373ffffffffffffffffffffffffffffffffffffffff161415612ad557612adf565b612ade836135f9565b5b50505050565b6000600560019054906101000a900473ffffffffffffffffffffffffffffffffffffffff1673ffffffffffffffffffffffffffffffffffffffff163373ffffffffffffffffffffffffffffffffffffffff1614612b8d576040517f08c379a000000000000000000000000000000000000000000000000000000000815260040180806020018281038252602b815260200180613ded602b913960400191505060405180910390fd5b6010544211612c04576040517f08c379a00000000000000000000000000000000000000000000000000000000081526004018080602001828103825260198152602001807f776169742032346872732066726f6d206c6173742063616c6c0000000000000081525060200191505060405180910390fd5b603c4201601081905550612c25600a5460085461225690919063ffffffff16565b6008819055506000600a81905550612c4a600b5460085461216d90919063ffffffff16565b6008819055506000600b81905550600854905090565b600560019054906101000a900473ffffffffffffffffffffffffffffffffffffffff1673ffffffffffffffffffffffffffffffffffffffff163373ffffffffffffffffffffffffffffffffffffffff1614612d06576040517f08c379a000000000000000000000000000000000000000000000000000000000815260040180806020018281038252602b815260200180613ded602b913960400191505060405180910390fd5b600f544211612d7d576040517f08c379a00000000000000000000000000000000000000000000000000000000081526004018080602001828103825260198152602001807f776169742032346872732066726f6d206c6173742063616c6c0000000000000081525060200191505060405180910390fd5b603c4201600f81905550612d9e60075460065461225690919063ffffffff16565b6006819055506000600781905550565b6014811015612e25576040517f08c379a000000000000000000000000000000000000000000000000000000000815260040180806020018281038252601c8152602001807f6d696e696d756d20756e7374616b6520697320323020746f6b656e730000000081525060200191505060405180910390fd5b612e7781601360003373ffffffffffffffffffffffffffffffffffffffff1673ffffffffffffffffffffffffffffffffffffffff1681526020019081526020016000205461216d90919063ffffffff16565b601360003373ffffffffffffffffffffffffffffffffffffffff1673ffffffffffffffffffffffffffffffffffffffff168152602001908152602001600020819055506000601360003373ffffffffffffffffffffffffffffffffffffffff1673ffffffffffffffffffffffffffffffffffffffff168152602001908152602001600020541415612f0c57612f0b33613a08565b5b6000612f1782613c93565b90506000612f2e828461216d90919063ffffffff16565b9050612f458160075461225690919063ffffffff16565b600781905550612f6082600e5461216d90919063ffffffff16565b600e81905550612f703383612fc0565b505050565b6000601960008373ffffffffffffffffffffffffffffffffffffffff1673ffffffffffffffffffffffffffffffffffffffff1681526020019081526020016000206000018190555050565b600073ffffffffffffffffffffffffffffffffffffffff168273ffffffffffffffffffffffffffffffffffffffff161415613063576040517f08c379a000000000000000000000000000000000000000000000000000000000815260040180806020018281038252601f8152602001807f45524332303a206d696e7420746f20746865207a65726f20616464726573730081525060200191505060405180910390fd5b61306f6000838361324d565b6130848160025461225690919063ffffffff16565b6002819055506130db816000808573ffffffffffffffffffffffffffffffffffffffff1673ffffffffffffffffffffffffffffffffffffffff1681526020019081526020016000205461225690919063ffffffff16565b6000808473ffffffffffffffffffffffffffffffffffffffff1673ffffffffffffffffffffffffffffffffffffffff168152602001908152602001600020819055508173ffffffffffffffffffffffffffffffffffffffff16600073ffffffffffffffffffffffffffffffffffffffff167fddf252ad1be2c89b69c2b068fc378daa952ba7f163c4a11628f55a4df523b3ef836040518082815260200191505060405180910390a35050565b60008083118290613233576040517f08c379a00000000000000000000000000000000000000000000000000000000081526004018080602001828103825283818151815260200191508051906020019080838360005b838110156131f85780820151818401526020810190506131dd565b50505050905090810190601f1680156132255780820380516001836020036101000a031916815260200191505b509250505060405180910390fd5b50600083858161323f57fe5b049050809150509392505050565b505050565b600073ffffffffffffffffffffffffffffffffffffffff168273ffffffffffffffffffffffffffffffffffffffff1614156132d8576040517f08c379a0000000000000000000000000000000000000000000000000000000008152600401808060200182810382526021815260200180613e616021913960400191505060405180910390fd5b6132e48260008361324d565b61334f81604051806060016040528060228152602001613d0a602291396000808673ffffffffffffffffffffffffffffffffffffffff1673ffffffffffffffffffffffffffffffffffffffff168152602001908152602001600020546128199092919063ffffffff16565b6000808473ffffffffffffffffffffffffffffffffffffffff1673ffffffffffffffffffffffffffffffffffffffff168152602001908152602001600020819055506133a68160025461216d90919063ffffffff16565b600281905550600073ffffffffffffffffffffffffffffffffffffffff168273ffffffffffffffffffffffffffffffffffffffff167fddf252ad1be2c89b69c2b068fc378daa952ba7f163c4a11628f55a4df523b3ef836040518082815260200191505060405180910390a35050565b60001515601160008373ffffffffffffffffffffffffffffffffffffffff1673ffffffffffffffffffffffffffffffffffffffff16815260200190815260200160002060000160009054906101000a900460ff16151514156135a3576001601160008373ffffffffffffffffffffffffffffffffffffffff1673ffffffffffffffffffffffffffffffffffffffff16815260200190815260200160002060000160006101000a81548160ff021916908315150217905550600d54601160008373ffffffffffffffffffffffffffffffffffffffff1673ffffffffffffffffffffffffffffffffffffffff168152602001908152602001600020600101819055508060126000600d54815260200190815260200160002060006101000a81548173ffffffffffffffffffffffffffffffffffffffff021916908373ffffffffffffffffffffffffffffffffffffffff1602179055506135806001600d5461225690919063ffffffff16565b600d8190555061359c6001600a5461225690919063ffffffff16565b600a819055505b50565b6000806135bd60058461209d90919063ffffffff16565b905060006135d560648361212390919063ffffffff16565b905060006135ec828661216d90919063ffffffff16565b9050809350505050919050565b8073ffffffffffffffffffffffffffffffffffffffff163373ffffffffffffffffffffffffffffffffffffffff16141561367e576040517f08c379a0000000000000000000000000000000000000000000000000000000008152600401808060200182810382526028815260200180613dc56028913960400191505060405180910390fd5b60001515601560003373ffffffffffffffffffffffffffffffffffffffff1673ffffffffffffffffffffffffffffffffffffffff16815260200190815260200160002060009054906101000a900460ff16151514613744576040517f08c379a000000000000000000000000000000000000000000000000000000000815260040180806020018281038252601e8152602001807f616c7265616479207375626d697474656420796f75722072656665726565000081525060200191505060405180910390fd5b60011515601160008373ffffffffffffffffffffffffffffffffffffffff1673ffffffffffffffffffffffffffffffffffffffff16815260200190815260200160002060000160009054906101000a900460ff161515146137f0576040517f08c379a0000000000000000000000000000000000000000000000000000000008152600401808060200182810382526029815260200180613d4e6029913960400191505060405180910390fd5b6138466001601860008473ffffffffffffffffffffffffffffffffffffffff1673ffffffffffffffffffffffffffffffffffffffff1681526020019081526020016000206000015461225690919063ffffffff16565b601860008373ffffffffffffffffffffffffffffffffffffffff1673ffffffffffffffffffffffffffffffffffffffff16815260200190815260200160002060000181905550601860008273ffffffffffffffffffffffffffffffffffffffff1673ffffffffffffffffffffffffffffffffffffffff168152602001908152602001600020600101339080600181540180825580915050600190039060005260206000200160009091909190916101000a81548173ffffffffffffffffffffffffffffffffffffffff021916908373ffffffffffffffffffffffffffffffffffffffff16021790555080601460003373ffffffffffffffffffffffffffffffffffffffff1673ffffffffffffffffffffffffffffffffffffffff16815260200190815260200160002060006101000a81548173ffffffffffffffffffffffffffffffffffffffff021916908373ffffffffffffffffffffffffffffffffffffffff1602179055506001601560003373ffffffffffffffffffffffffffffffffffffffff1673ffffffffffffffffffffffffffffffffffffffff16815260200190815260200160002060006101000a81548160ff02191690831515021790555050565b6001601160008373ffffffffffffffffffffffffffffffffffffffff1673ffffffffffffffffffffffffffffffffffffffff16815260200190815260200160002060000160006101000a81548160ff021916908315150217905515613c90576000601160008373ffffffffffffffffffffffffffffffffffffffff1673ffffffffffffffffffffffffffffffffffffffff1681526020019081526020016000206001015490506000601260006001600d5403815260200190815260200160002060009054906101000a900473ffffffffffffffffffffffffffffffffffffffff169050601260006001600d5403815260200190815260200160002060009054906101000a900473ffffffffffffffffffffffffffffffffffffffff166012600084815260200190815260200160002060006101000a81548173ffffffffffffffffffffffffffffffffffffffff021916908373ffffffffffffffffffffffffffffffffffffffff16021790555081601160008373ffffffffffffffffffffffffffffffffffffffff1673ffffffffffffffffffffffffffffffffffffffff16815260200190815260200160002060010181905550601160008473ffffffffffffffffffffffffffffffffffffffff1673ffffffffffffffffffffffffffffffffffffffff168152602001908152602001600020600080820160006101000a81549060ff021916905560018201600090555050601260006001600d5403815260200190815260200160002060006101000a81549073ffffffffffffffffffffffffffffffffffffffff0219169055613c6b6001600d5461216d90919063ffffffff16565b600d81905550613c876001600b5461225690919063ffffffff16565b600b8190555050505b50565b600080613caa60198461209d90919063ffffffff16565b90506000613cc260648361212390919063ffffffff16565b90506000613cd9828661216d90919063ffffffff16565b905080935050505091905056fe45524332303a207472616e7366657220746f20746865207a65726f206164647265737345524332303a206275726e20616d6f756e7420657863656564732062616c616e636545524332303a20617070726f766520746f20746865207a65726f20616464726573736164647265737320646f6573206e6f742062656c6f6e6720746f2061207374616b65686f6c6465727345524332303a207472616e7366657220616d6f756e7420657863656564732062616c616e636563616e206f6e6c792063616c6c20746869732066756e6374696f6e206f6e6365207065722064617963616e6e6f742061646420796f7572206164647265737320617320796f757220726566657272616c4f6e6c79206f776e657220697320616c6c6f77656420746f2063616c6c20746869732066756e6374696f6e536166654d6174683a206d756c7469706c69636174696f6e206f766572666c6f7745524332303a207472616e7366657220616d6f756e74206578636565647320616c6c6f77616e636545524332303a206275726e2066726f6d20746865207a65726f206164647265737345524332303a207472616e736665722066726f6d20746865207a65726f206164647265737345524332303a20617070726f76652066726f6d20746865207a65726f206164647265737345524332303a2064656372656173656420616c6c6f77616e63652062656c6f77207a65726fa2646970667358221220b13483307fc17d506342b1df470a76babf82b9c0fff772d53f4eeedcd87f568164736f6c6343000605003345524332303a206275726e20616d6f756e7420657863656564732062616c616e63656164647265737320646f6573206e6f742062656c6f6e6720746f2061207374616b65686f6c6465727363616e6e6f742061646420796f7572206164647265737320617320796f757220726566657272616c4f6e6c79206f776e657220697320616c6c6f77656420746f2063616c6c20746869732066756e6374696f6e536166654d6174683a206d756c7469706c69636174696f6e206f766572666c6f7745524332303a206275726e2066726f6d20746865207a65726f2061646472657373",
  "immutableReferences": {},
  "source": "// SPDX-License-Identifier: MIT\r\npragma solidity 0.6.5;\r\n\r\nimport \"@openzeppelin/contracts/token/ERC20/ERC20.sol\";\r\n\r\ncontract StakingToken is ERC20  {\r\n    using SafeMath for uint256;\r\n   \r\n    address public owner;   \r\n    \r\n    /* @auditor all displayed variable in frontend will be converted to ether(div(1e18)\r\n        apart from stakeholdersIndex\r\n    */\r\n    uint public totalStakingPool = 0;\r\n    uint internal todayStakingPool = 0;\r\n    uint public stakeholdersCount = 0;\r\n    uint public rewardToShare = 0;\r\n    uint internal todayStakeholdersCountUp = 0;\r\n    uint internal todayStakeholdersCountDown = 0;\r\n    uint public percentGrowth = 0;\r\n    uint public stakeholdersIndex = 0;\r\n    uint public totalStakes = 0;\r\n    uint private setTime1 = 0;\r\n    uint private setTime2 = 0;\r\n    \r\n    struct Referrals {\r\n         uint referralcount;\r\n         address[] referredAddresses;    \r\n    }\r\n    \r\n    struct ReferralBonus {\r\n         uint uplineProfit;\r\n    }\r\n    \r\n    struct Stakeholder {\r\n         bool staker;\r\n         uint id;\r\n    }\r\n    \r\n    mapping (address => Stakeholder) public stakeholders;\r\n    \r\n    mapping (uint => address) public stakeholdersReverseMapping;\r\n    \r\n    mapping(address => uint256) private stakes;\r\n    \r\n    mapping(address => address) public addressThatReferred;\r\n    \r\n    mapping(address => bool) private exist;\r\n    \r\n    mapping(address => uint256) private rewards;\r\n    \r\n    mapping(address => uint256) private time;\r\n    \r\n    mapping(address => Referrals) private referral;\r\n    \r\n    mapping(address => ReferralBonus) public bonus;\r\n     \r\n     /* ***************\r\n    * DEFINE FUNCTIONS\r\n    *************** */\r\n    \r\n    /**\r\n     * auditor token will be converted to wei(mul(1e18)) in frontend and\r\n     * returned to ether(div(1e18)) when stakeholder checks balance, this way all decimals will be gotten\r\n     */\r\n    \r\n    /*pass token supply to owner of contract\r\n     set name and symbol of token\r\n     contract has to have funds in totalStakeingPool to enable calculation\r\n     */\r\n    constructor(address _owner, uint256 _supply) public ERC20(\"Shil\", \"PoSH\") {\r\n        owner = _owner;\r\n        uint supply = _supply.mul(1e18);\r\n        _mint(_owner, supply); \r\n        \r\n        //to ensure funds are in pool, to be determined by owner and stakeholdersCount is above 0 \r\n        createStake(5000000000000000000000,0x0000000000000000000000000000000000000000);\r\n        addTodayCount();\r\n        addPool();\r\n    }\r\n    \r\n    modifier onlyOwner() {\r\n         require(msg.sender == owner, 'Only owner is allowed to call this function');\r\n         _;\r\n    }\r\n    \r\n    // 1. Referral functions\r\n    \r\n    /* referree bonus will be added to his reward automatically*/\r\n    function addUplineProfit(address stakeholderAddress, uint amount) private  {\r\n        bonus[stakeholderAddress].uplineProfit =  bonus[stakeholderAddress].uplineProfit.add(amount);\r\n    } \r\n    \r\n    /* return referree bonus to zero*/\r\n    function revertUplineProfit(address stakeholderAddress) private  {\r\n        bonus[stakeholderAddress].uplineProfit =  0;\r\n    } \r\n     \r\n     /*returns referralcount for a stakeholder*/\r\n    function stakeholderReferralCount(address stakeholderAddress) external view returns(uint) {\r\n        return referral[stakeholderAddress].referralcount;\r\n     }\r\n    \r\n    /*check if _refereeAddress belongs to a stakeholder and \r\n    add a count, add referral to stakeholder referred list, and whitelist referral\r\n    assign the address that referred a stakeholder to that stakeholder to enable send bonus to referee\r\n    */\r\n    function addReferee(address _refereeAddress) private {\r\n        require(msg.sender != _refereeAddress, 'cannot add your address as your referral');\r\n        require(exist[msg.sender] == false, 'already submitted your referee' );\r\n        require(stakeholders[_refereeAddress].staker == true, 'address does not belong to a stakeholders');\r\n        referral[_refereeAddress].referralcount =  referral[_refereeAddress].referralcount.add(1);   \r\n        referral[_refereeAddress].referredAddresses.push(msg.sender);\r\n        addressThatReferred[msg.sender] = _refereeAddress;\r\n        exist[msg.sender] = true;\r\n    }\r\n    \r\n    /*returns stakeholders Referred List\r\n    */\r\n     function stakeholdersReferredList(address stakeholderAddress) view external returns(address[] memory){\r\n       return (referral[stakeholderAddress].referredAddresses);\r\n    }\r\n    \r\n    // 2. Stake FUNCTIONS\r\n    \r\n    /*add stakes if staker is new add staker to stakeholders\r\n    calculateStakingCost\r\n    add staking cost to pool\r\n    burn stake\r\n    */\r\n    \r\n    /* @auditor stakes will be converted to wei in frontend*/\r\n    function createStake(uint256 _stake, address referree) public {\r\n        _createStake(_stake, referree);\r\n    }\r\n    \r\n    function _createStake(uint256 _stake, address referree)\r\n        private\r\n    {\r\n        require(_stake >= 20, 'minimum stake is 20 tokens');\r\n        if(stakes[msg.sender] == 0){\r\n            addStakeholder(msg.sender);\r\n        }\r\n        uint availableTostake = calculateStakingCost(_stake);\r\n        uint stakeToPool = _stake.sub(availableTostake);\r\n        todayStakingPool = todayStakingPool.add(stakeToPool);\r\n        stakes[msg.sender] = stakes[msg.sender].add(availableTostake);\r\n        totalStakes = totalStakes.add(availableTostake);\r\n        _burn(msg.sender, _stake);\r\n        //in js if no referree, 0x0000000000000000000000000000000000000000 will be used\r\n        if(referree == 0x0000000000000000000000000000000000000000){}\r\n        else{\r\n        addReferee(referree);\r\n        }   \r\n    }\r\n    \r\n     /*remove stakes if staker has no more funds remove staker from stakeholders\r\n    calculateunStakingCost\r\n    add unstaking cost to pool\r\n    mint stake\r\n    */\r\n    \r\n    /* @auditor stakes will be converted to wei in frontend*/\r\n    function removeStake(uint256 _stake) external {\r\n        _removeStake(_stake);\r\n    }\r\n    \r\n    function _removeStake(uint _stake) private {\r\n        require(_stake >= 20, 'minimum unstake is 20 tokens');\r\n        stakes[msg.sender] = stakes[msg.sender].sub(_stake);\r\n         if(stakes[msg.sender] == 0){\r\n             removeStakeholder(msg.sender);\r\n         }\r\n        uint stakeToReceive = calculateUnstakingCost(_stake);\r\n        uint stakeToPool = _stake.sub(stakeToReceive);\r\n        todayStakingPool = todayStakingPool.add(stakeToPool);\r\n        totalStakes = totalStakes.sub(stakeToReceive);\r\n        _mint(msg.sender, stakeToReceive);\r\n    }\r\n    \r\n    /* @auditor stakes will be converted to ether in frontend*/\r\n    function stakeOf(address _stakeholder) external view returns(uint256) {\r\n        return stakes[_stakeholder];\r\n    }\r\n    \r\n    function addStakeholder(address _stakeholder) private {\r\n       if(stakeholders[_stakeholder].staker == false) {\r\n       stakeholders[_stakeholder].staker = true;    \r\n       stakeholders[_stakeholder].id = stakeholdersIndex;\r\n       stakeholdersReverseMapping[stakeholdersIndex] = _stakeholder;\r\n       stakeholdersIndex = stakeholdersIndex.add(1);\r\n       todayStakeholdersCountUp = todayStakeholdersCountUp.add(1);\r\n      }\r\n    }\r\n   \r\n    function removeStakeholder(address _stakeholder) private  {\r\n        if (stakeholders[_stakeholder].staker = true) {\r\n            // get id of the stakeholders to be deleted\r\n            uint swappableId = stakeholders[_stakeholder].id;\r\n            \r\n            // swap the stakeholders info and update admins mapping\r\n            // get the last stakeholdersReverseMapping address for swapping\r\n            address swappableAddress = stakeholdersReverseMapping[stakeholdersIndex -1];\r\n            \r\n            // swap the stakeholdersReverseMapping and then reduce stakeholder index\r\n            stakeholdersReverseMapping[swappableId] = stakeholdersReverseMapping[stakeholdersIndex - 1];\r\n            \r\n            // also remap the stakeholder id\r\n            stakeholders[swappableAddress].id = swappableId;\r\n            \r\n            // delete and reduce admin index \r\n            delete(stakeholders[_stakeholder]);\r\n            delete(stakeholdersReverseMapping[stakeholdersIndex - 1]);\r\n            stakeholdersIndex = stakeholdersIndex.sub(1);\r\n            todayStakeholdersCountDown = todayStakeholdersCountDown.add(1);\r\n        }\r\n    }\r\n    \r\n    // 4. Updating FUNCTIONS\r\n    \r\n    /*add todayStakingPool to totalStakeingPool\r\n    only called once in 24hrs\r\n    reset todayStakingPool to zero\r\n    */\r\n     function addPool() onlyOwner private {\r\n        require(now > setTime1, 'wait 24hrs from last call');\r\n        setTime1 = now + 60;\r\n        totalStakingPool = totalStakingPool.add(todayStakingPool);\r\n        todayStakingPool = 0;\r\n     }\r\n    \r\n    /*\r\n     addTodayCount if stakeholders leave or joins\r\n     only called once in 24hrs \r\n    */\r\n    function addTodayCount() private onlyOwner returns(uint count) {\r\n        require(now > setTime2, 'wait 24hrs from last call');\r\n        setTime2 = now + 60;\r\n        stakeholdersCount = stakeholdersCount.add(todayStakeholdersCountUp);\r\n        todayStakeholdersCountUp = 0;\r\n        stakeholdersCount = stakeholdersCount.sub(todayStakeholdersCountDown);\r\n        todayStakeholdersCountDown = 0;\r\n        count =stakeholdersCount;\r\n    }\r\n    \r\n    /*\r\n     check stakeholdersCountBeforeUpdate before addTodayCount,\r\n     get currentStakeholdersCount, get newStakers by minusing both\r\n     if above 1 you check for the percentGrowth; (newStakers*100)/stakeholdersCountBeforeUpdate\r\n     if 0 or below set rewardToShare and percentGrowth to 0\r\n     checkCommunityGrowthPercent will be called every 24hrs\r\n    */\r\n    function checkCommunityGrowthPercent() external onlyOwner  {\r\n       uint stakeholdersCountBeforeUpdate = stakeholdersCount;\r\n       uint currentStakeholdersCount = addTodayCount();\r\n       int newStakers = int(currentStakeholdersCount - stakeholdersCountBeforeUpdate);\r\n       if(newStakers <= 0){\r\n           rewardToShare = 0;\r\n           percentGrowth = 0;\r\n       }\r\n       else{\r\n           uint intToUnit = uint(newStakers);\r\n           uint newStaker = intToUnit.mul(100);\r\n           \r\n           //convert percentGrowth to wei to get actual values\r\n           percentGrowth = newStaker.mul(1e18).div(stakeholdersCountBeforeUpdate);\r\n           if(percentGrowth >= 10*10**18){\r\n               \r\n               //gets 10% of percentGrowth\r\n               uint percentOfPoolToShare = percentGrowth.div(10);\r\n               \r\n               /*converts percentGrowth back to ether and also get percentOfPoolToShare of totalStakingPool of yesterday \r\n                ie if percentGrowth is 40% percentOfPoolToShare is 4% will share 4% of yesterday pool\r\n               */\r\n               uint getPoolToShare = totalStakingPool.mul(percentOfPoolToShare).div(1e20);\r\n               totalStakingPool = totalStakingPool.sub(getPoolToShare);\r\n               rewardToShare = getPoolToShare;\r\n           }\r\n           else{\r\n               rewardToShare = 0;\r\n               percentGrowth = 0;\r\n           }\r\n       }\r\n       addPool();\r\n    }\r\n    \r\n     // 4. Reward FUNCTIONS\r\n    \r\n     function calculateReward(address _stakeholder) internal view returns(uint256) {\r\n        return ((stakes[_stakeholder].mul(rewardToShare)).div(totalStakes));\r\n    }\r\n    \r\n    /*\r\n        after stakeholders check for new percentGrowth and rewardToShare \r\n        they get their reward which can only be called once from a stakeholder a day\r\n        all stakeholders gets 95% of their reward if a stakeholder has a referree \r\n        5% is sent to his referree, if no referree 5% wil be sent back to the totalStakingPool\r\n    */\r\n    function getRewards() external {\r\n        require(stakeholders[msg.sender].staker == true, 'address does not belong to a stakeholders');\r\n        require(rewardToShare > 0, 'no reward to share at this time');\r\n        require(now > time[msg.sender], 'can only call this function once per day');\r\n        time[msg.sender] = now + 60;\r\n        uint256 reward = calculateReward(msg.sender);\r\n        if(exist[msg.sender]){\r\n            uint removeFromReward = reward.mul(5).div(100);\r\n            uint userRewardAfterUpLineBonus = reward.sub(removeFromReward);\r\n            address addr = addressThatReferred[msg.sender];\r\n            addUplineProfit(addr, removeFromReward);\r\n            rewards[msg.sender] = rewards[msg.sender].add(userRewardAfterUpLineBonus);\r\n        }\r\n        else{\r\n            uint removeFromReward1 = reward.mul(5).div(100);\r\n            totalStakingPool = totalStakingPool.add(removeFromReward1);\r\n            uint userReward = reward.sub(removeFromReward1);\r\n            rewards[msg.sender] = rewards[msg.sender].add(userReward);\r\n        }\r\n    }\r\n    \r\n    /*\r\n        after stakeholder checks the bonus mapping if he has bonus he add them to his reward\r\n    */\r\n    function getReferralBouns() external {\r\n        require(stakeholders[msg.sender].staker == true, 'address does not belong to a stakeholders');\r\n        require(bonus[msg.sender].uplineProfit > 0, 'you do not have any bonus');\r\n        uint bonusToGet = bonus[msg.sender].uplineProfit;\r\n        rewards[msg.sender] = rewards[msg.sender].add(bonusToGet);\r\n        revertUplineProfit(msg.sender);\r\n    }\r\n    \r\n    /* return will converted to ether in frontend*/\r\n    function rewardOf(address _stakeholder) external view returns(uint256){\r\n        return rewards[_stakeholder];\r\n    }\r\n    \r\n    // 5. Tranfer FUNCTIONS\r\n    \r\n    /* token will be converted to wei in frontend*/\r\n    function transfer(address _to, uint256 _tokens) public override  returns (bool) {\r\n       if(msg.sender == owner){\r\n              _transfer(msg.sender, _to, _tokens);  \r\n          }\r\n        else{\r\n            uint toSend = transferFee(msg.sender, _tokens);\r\n            _transfer(msg.sender, _to, toSend);\r\n           }\r\n        return true;\r\n    }\r\n    \r\n    function bulkTransfer(address[] calldata _receivers, uint256[] calldata _tokens) external returns (bool) {\r\n        require(_receivers.length == _tokens.length);\r\n        uint toSend;\r\n        for (uint256 i = 0; i < _receivers.length; i++) {\r\n            if(msg.sender == owner){\r\n              _transfer(msg.sender, _receivers[i], _tokens[i].mul(1e18));  \r\n            }\r\n            else{\r\n             toSend = transferFee(msg.sender, _tokens[i]);\r\n            _transfer(msg.sender, _receivers[i], toSend);\r\n            }\r\n        }\r\n        return true;\r\n    }\r\n    \r\n    function transferFrom(address sender, address recipient, uint256 _tokens) public override returns (bool)  {\r\n       uint  toSend = transferFee(sender, _tokens);\r\n       _transfer(sender, recipient, toSend);\r\n       _approve(sender, _msgSender(),allowance(sender,msg.sender).sub(_tokens, \"ERC20: transfer amount exceeds allowance\"));\r\n        return true;\r\n    }\r\n    \r\n    // 6. Calculation FUNCTIONS\r\n    \r\n    /*skaing cost 5% */\r\n    function calculateStakingCost(uint256 _stake) private pure returns(uint) {\r\n        uint stakingCost =  (_stake).mul(5);\r\n        uint percent = stakingCost.div(100);\r\n        uint availableForstake = _stake.sub(percent);\r\n        return availableForstake;\r\n    }\r\n    \r\n    /*unskaing cost 25% */\r\n    function calculateUnstakingCost(uint _stake) private pure returns(uint ) {\r\n        uint unstakingCost =  (_stake).mul(25);\r\n        uint percent = unstakingCost.div(100);\r\n        uint stakeReceived = _stake.sub(percent);\r\n        return stakeReceived;\r\n    }\r\n    \r\n    /*\r\n       remove 10% of _token \r\n       burn 1%\r\n       send 9% to pool\r\n       return actual amount receivers gets\r\n    */\r\n    /* @auditor given token is in wei calculation will work*/\r\n    function transferFee(address sender, uint _token) private returns(uint _transferred){\r\n        uint transferFees =  _token.div(10);\r\n        uint burn = transferFees.div(10);\r\n        uint addToPool = transferFees.sub(burn);\r\n        todayStakingPool = todayStakingPool.add(addToPool);\r\n        _transferred = _token - transferFees;\r\n        _burn(sender, burn);\r\n    }\r\n    \r\n    // 7. Withdraw function\r\n    function withdrawReward() public {\r\n        require(rewards[msg.sender] > 0, 'reward balance must be above 0');\r\n        require(stakeholders[msg.sender].staker == true, 'address does not belong to a stakeholders');\r\n        require(percentGrowth >= 10*10**18,'withdraw disabled');\r\n        uint256 reward = rewards[msg.sender];\r\n        rewards[msg.sender] = 0;\r\n        _mint(msg.sender, reward);\r\n    }\r\n}",
  "sourcePath": "C:/Users/nwagb/Documents/Shill Project/contracts/StakingToken.sol",
  "compiler": {
    "name": "solc",
    "version": "0.6.5+commit.f956cc89.Emscripten.clang"
  },
  "schemaVersion": "3.2.3",
  "updatedAt": "2020-08-24T02:39:44.274Z",
  "networkType": "ethereum",
  "devdoc": {
    "methods": {
      "allowance(address,address)": {
        "details": "See {IERC20-allowance}."
      },
      "approve(address,uint256)": {
        "details": "See {IERC20-approve}.     * Requirements:     * - `spender` cannot be the zero address."
      },
      "balanceOf(address)": {
        "details": "See {IERC20-balanceOf}."
      },
      "decimals()": {
        "details": "Returns the number of decimals used to get its user representation. For example, if `decimals` equals `2`, a balance of `505` tokens should be displayed to a user as `5,05` (`505 / 10 ** 2`).     * Tokens usually opt for a value of 18, imitating the relationship between Ether and Wei. This is the value {ERC20} uses, unless {_setupDecimals} is called.     * NOTE: This information is only used for _display_ purposes: it in no way affects any of the arithmetic of the contract, including {IERC20-balanceOf} and {IERC20-transfer}."
      },
      "decreaseAllowance(address,uint256)": {
        "details": "Atomically decreases the allowance granted to `spender` by the caller.     * This is an alternative to {approve} that can be used as a mitigation for problems described in {IERC20-approve}.     * Emits an {Approval} event indicating the updated allowance.     * Requirements:     * - `spender` cannot be the zero address. - `spender` must have allowance for the caller of at least `subtractedValue`."
      },
      "increaseAllowance(address,uint256)": {
        "details": "Atomically increases the allowance granted to `spender` by the caller.     * This is an alternative to {approve} that can be used as a mitigation for problems described in {IERC20-approve}.     * Emits an {Approval} event indicating the updated allowance.     * Requirements:     * - `spender` cannot be the zero address."
      },
      "name()": {
        "details": "Returns the name of the token."
      },
      "symbol()": {
        "details": "Returns the symbol of the token, usually a shorter version of the name."
      },
      "totalSupply()": {
        "details": "See {IERC20-totalSupply}."
      }
    }
  },
  "userdoc": {
    "methods": {
      "constructor": "auditor token will be converted to wei(mul(1e18)) in frontend and returned to ether(div(1e18)) when stakeholder checks balance, this way all decimals will be gotten"
    }
  }
}